{
  "contractName": "ReviewSystem",
  "abi": [
    {
      "constant": true,
      "inputs": [],
      "name": "review_reward",
      "outputs": [
        {
          "name": "",
          "type": "uint256"
        }
      ],
      "payable": false,
      "stateMutability": "view",
      "type": "function"
    },
    {
      "constant": true,
      "inputs": [
        {
          "name": "profileAddress",
          "type": "address"
        }
      ],
      "name": "getProfile",
      "outputs": [
        {
          "name": "",
          "type": "uint256"
        },
        {
          "name": "",
          "type": "uint256"
        },
        {
          "name": "",
          "type": "uint256"
        }
      ],
      "payable": false,
      "stateMutability": "view",
      "type": "function"
    },
    {
      "constant": true,
      "inputs": [
        {
          "name": "objectId",
          "type": "uint256"
        }
      ],
      "name": "getTrade",
      "outputs": [
        {
          "name": "",
          "type": "address"
        },
        {
          "name": "",
          "type": "address"
        },
        {
          "name": "",
          "type": "uint256"
        },
        {
          "name": "",
          "type": "uint256"
        },
        {
          "name": "",
          "type": "string"
        },
        {
          "name": "",
          "type": "uint256"
        }
      ],
      "payable": false,
      "stateMutability": "view",
      "type": "function"
    },
    {
      "constant": false,
      "inputs": [
        {
          "name": "objectId",
          "type": "uint256"
        }
      ],
      "name": "sellerConfirm",
      "outputs": [],
      "payable": false,
      "stateMutability": "nonpayable",
      "type": "function"
    },
    {
      "constant": true,
      "inputs": [],
      "name": "getConfirmationReward",
      "outputs": [
        {
          "name": "",
          "type": "uint256"
        }
      ],
      "payable": false,
      "stateMutability": "view",
      "type": "function"
    },
    {
      "constant": true,
      "inputs": [],
      "name": "getReviewReward",
      "outputs": [
        {
          "name": "",
          "type": "uint256"
        }
      ],
      "payable": false,
      "stateMutability": "view",
      "type": "function"
    },
    {
      "constant": false,
      "inputs": [
        {
          "name": "reviewed",
          "type": "address"
        },
        {
          "name": "objectId",
          "type": "uint256"
        },
        {
          "name": "rate",
          "type": "uint256"
        },
        {
          "name": "buyerReview",
          "type": "string"
        }
      ],
      "name": "review",
      "outputs": [
        {
          "components": [
            {
              "name": "reviewed",
              "type": "address"
            },
            {
              "name": "reviewer",
              "type": "address"
            },
            {
              "name": "rate",
              "type": "uint256"
            },
            {
              "name": "buyerReview",
              "type": "string"
            }
          ],
          "name": "",
          "type": "tuple"
        }
      ],
      "payable": false,
      "stateMutability": "nonpayable",
      "type": "function"
    },
    {
      "constant": false,
      "inputs": [
        {
          "name": "objectId",
          "type": "uint256"
        }
      ],
      "name": "buyerConfirm",
      "outputs": [],
      "payable": false,
      "stateMutability": "nonpayable",
      "type": "function"
    },
    {
      "constant": true,
      "inputs": [],
      "name": "confirmation_reward",
      "outputs": [
        {
          "name": "",
          "type": "uint256"
        }
      ],
      "payable": false,
      "stateMutability": "view",
      "type": "function"
    },
    {
      "constant": true,
      "inputs": [
        {
          "name": "objectId",
          "type": "uint256"
        }
      ],
      "name": "getReview",
      "outputs": [
        {
          "name": "",
          "type": "address"
        },
        {
          "name": "",
          "type": "address"
        },
        {
          "name": "",
          "type": "uint256"
        },
        {
          "name": "",
          "type": "string"
        }
      ],
      "payable": false,
      "stateMutability": "view",
      "type": "function"
    },
    {
      "constant": true,
      "inputs": [],
      "name": "tokenBalance",
      "outputs": [
        {
          "name": "",
          "type": "uint256"
        }
      ],
      "payable": false,
      "stateMutability": "view",
      "type": "function"
    },
    {
      "constant": false,
      "inputs": [
        {
          "name": "seller",
          "type": "address"
        },
        {
          "name": "objectId",
          "type": "uint256"
        },
        {
          "name": "tokenUsed",
          "type": "uint256"
        }
      ],
      "name": "buy",
      "outputs": [
        {
          "components": [
            {
              "name": "seller",
              "type": "address"
            },
            {
              "name": "buyer",
              "type": "address"
            },
            {
              "name": "objectId",
              "type": "uint256"
            },
            {
              "name": "price",
              "type": "uint256"
            },
            {
              "name": "status",
              "type": "string"
            },
            {
              "name": "confirmation",
              "type": "uint256"
            }
          ],
          "name": "",
          "type": "tuple"
        }
      ],
      "payable": true,
      "stateMutability": "payable",
      "type": "function"
    },
    {
      "constant": true,
      "inputs": [],
      "name": "rewarder",
      "outputs": [
        {
          "name": "",
          "type": "address"
        }
      ],
      "payable": false,
      "stateMutability": "view",
      "type": "function"
    },
    {
      "inputs": [],
      "payable": false,
      "stateMutability": "nonpayable",
      "type": "constructor"
    }
  ],
  "bytecode": "0x6060604052341561000f57600080fd5b336000806101000a81548173ffffffffffffffffffffffffffffffffffffffff021916908373ffffffffffffffffffffffffffffffffffffffff1602179055506001808190555060016002819055506414f46b0400600381905550612631806100796000396000f3006060604052600436106100c5576000357c0100000000000000000000000000000000000000000000000000000000900463ffffffff16806303eafa76146100ca5780630f53a470146100f35780632db25e051461014e578063459934ec146102655780635d46a3451461028857806369731981146102b15780637d8303b0146102da578063888487cd1461037c5780638df437261461039f578063990581b6146103c85780639e1a4d19146104d1578063a59ac6dd146104fa578063dcc3e06e1461054e575b600080fd5b34156100d557600080fd5b6100dd6105a3565b6040518082815260200191505060405180910390f35b34156100fe57600080fd5b61012a600480803573ffffffffffffffffffffffffffffffffffffffff169060200190919050506105a9565b60405180848152602001838152602001828152602001935050505060405180910390f35b341561015957600080fd5b61016f6004808035906020019091905050610851565b604051808773ffffffffffffffffffffffffffffffffffffffff1673ffffffffffffffffffffffffffffffffffffffff1681526020018673ffffffffffffffffffffffffffffffffffffffff1673ffffffffffffffffffffffffffffffffffffffff16815260200185815260200184815260200180602001838152602001828103825284818151815260200191508051906020019080838360005b8381101561022557808201518184015260208101905061020a565b50505050905090810190601f1680156102525780820380516001836020036101000a031916815260200191505b5097505050505050505060405180910390f35b341561027057600080fd5b6102866004808035906020019091905050610a88565b005b341561029357600080fd5b61029b610e97565b6040518082815260200191505060405180910390f35b34156102bc57600080fd5b6102c4610efc565b6040518082815260200191505060405180910390f35b34156102e557600080fd5b610366600480803573ffffffffffffffffffffffffffffffffffffffff1690602001909190803590602001909190803590602001909190803590602001908201803590602001908080601f01602080910402602001604051908101604052809392919081815260200183838082843782019150505050505091905050610f61565b6040518082815260200191505060405180910390f35b341561038757600080fd5b61039d6004808035906020019091905050611562565b005b34156103aa57600080fd5b6103b2611971565b6040518082815260200191505060405180910390f35b34156103d357600080fd5b6103e96004808035906020019091905050611977565b604051808573ffffffffffffffffffffffffffffffffffffffff1673ffffffffffffffffffffffffffffffffffffffff1681526020018473ffffffffffffffffffffffffffffffffffffffff1673ffffffffffffffffffffffffffffffffffffffff16815260200183815260200180602001828103825283818151815260200191508051906020019080838360005b83811015610493578082015181840152602081019050610478565b50505050905090810190601f1680156104c05780820380516001836020036101000a031916815260200191505b509550505050505060405180910390f35b34156104dc57600080fd5b6104e4611b87565b6040518082815260200191505060405180910390f35b610538600480803573ffffffffffffffffffffffffffffffffffffffff16906020019091908035906020019091908035906020019091905050611b8d565b6040518082815260200191505060405180910390f35b341561055957600080fd5b610561611f49565b604051808273ffffffffffffffffffffffffffffffffffffffff1673ffffffffffffffffffffffffffffffffffffffff16815260200191505060405180910390f35b60025481565b60008060006105b66122b2565b6000809054906101000a900473ffffffffffffffffffffffffffffffffffffffff1673ffffffffffffffffffffffffffffffffffffffff163373ffffffffffffffffffffffffffffffffffffffff1614151561061157600080fd5b600660008673ffffffffffffffffffffffffffffffffffffffff1673ffffffffffffffffffffffffffffffffffffffff16815260200190815260200160002060806040519081016040529081600082015481526020016001820154815260200160028201805480602002602001604051908101604052809291908181526020016000905b828210156108205783829060005260206000209060040201608060405190810160405290816000820160009054906101000a900473ffffffffffffffffffffffffffffffffffffffff1673ffffffffffffffffffffffffffffffffffffffff1673ffffffffffffffffffffffffffffffffffffffff1681526020016001820160009054906101000a900473ffffffffffffffffffffffffffffffffffffffff1673ffffffffffffffffffffffffffffffffffffffff1673ffffffffffffffffffffffffffffffffffffffff16815260200160028201548152602001600382018054600181600116156101000203166002900480601f0160208091040260200160405190810160405280929190818152602001828054600181600116156101000203166002900480156108085780601f106107dd57610100808354040283529160200191610808565b820191906000526020600020905b8154815290600101906020018083116107eb57829003601f168201915b50505050508152505081526020019060010190610695565b5050505081526020016003820154815250509050806000015181602001518260600151935093509350509193909250565b60008060008061085f6122e1565b60006108696122f5565b6000809054906101000a900473ffffffffffffffffffffffffffffffffffffffff1673ffffffffffffffffffffffffffffffffffffffff163373ffffffffffffffffffffffffffffffffffffffff161415156108c457600080fd5b6004600089815260200190815260200160002060c060405190810160405290816000820160009054906101000a900473ffffffffffffffffffffffffffffffffffffffff1673ffffffffffffffffffffffffffffffffffffffff1673ffffffffffffffffffffffffffffffffffffffff1681526020016001820160009054906101000a900473ffffffffffffffffffffffffffffffffffffffff1673ffffffffffffffffffffffffffffffffffffffff1673ffffffffffffffffffffffffffffffffffffffff1681526020016002820154815260200160038201548152602001600482018054600181600116156101000203166002900480601f016020809104026020016040519081016040528092919081815260200182805460018160011615610100020316600290048015610a3c5780601f10610a1157610100808354040283529160200191610a3c565b820191906000526020600020905b815481529060010190602001808311610a1f57829003601f168201915b505050505081526020016005820154815250509050806000015181602001518260400151836060015184608001518560a001518191509650965096509650965096505091939550919395565b60006004600083815260200190815260200160002090508060000160009054906101000a900473ffffffffffffffffffffffffffffffffffffffff1673ffffffffffffffffffffffffffffffffffffffff163373ffffffffffffffffffffffffffffffffffffffff16148015610d99575073__StringUtils___________________________6346bdca9a826004016000604051602001526040518263ffffffff167c0100000000000000000000000000000000000000000000000000000000028152600401808060200180602001838103835284818154600181600116156101000203166002900481526020019150805460018160011615610100020316600290048015610bd85780601f10610bad57610100808354040283529160200191610bd8565b820191906000526020600020905b815481529060010190602001808311610bbb57829003601f168201915b50508381038252600b8152602001807f494e2050524f4752455353000000000000000000000000000000000000000000815250602001935050505060206040518083038186803b1515610c2a57600080fd5b6102c65a03f41515610c3b57600080fd5b5050506040518051905080610d98575073__StringUtils___________________________6346bdca9a826004016000604051602001526040518263ffffffff167c0100000000000000000000000000000000000000000000000000000000028152600401808060200180602001838103835284818154600181600116156101000203166002900481526020019150805460018160011615610100020316600290048015610d2a5780601f10610cff57610100808354040283529160200191610d2a565b820191906000526020600020905b815481529060010190602001808311610d0d57829003601f168201915b50508381038252600f8152602001807f494e20434f4e4649524d4154494f4e0000000000000000000000000000000000815250602001935050505060206040518083038186803b1515610d7c57600080fd5b6102c65a03f41515610d8d57600080fd5b505050604051805190505b5b1515610da457600080fd5b60018160050160008282540192505081905550600281600501541415610e44576040805190810160405280600481526020017f444f4e4500000000000000000000000000000000000000000000000000000000815250816004019080519060200190610e1192919061235e565b50610e3f8160000160009054906101000a900473ffffffffffffffffffffffffffffffffffffffff16611f6e565b610e93565b6040805190810160405280600f81526020017f494e20434f4e4649524d4154494f4e0000000000000000000000000000000000815250816004019080519060200190610e9192919061235e565b505b5050565b60008060009054906101000a900473ffffffffffffffffffffffffffffffffffffffff1673ffffffffffffffffffffffffffffffffffffffff163373ffffffffffffffffffffffffffffffffffffffff16141515610ef457600080fd5b600154905090565b60008060009054906101000a900473ffffffffffffffffffffffffffffffffffffffff1673ffffffffffffffffffffffffffffffffffffffff163373ffffffffffffffffffffffffffffffffffffffff16141515610f5957600080fd5b600254905090565b610f696123de565b60006004600086815260200190815260200160002090508060010160009054906101000a900473ffffffffffffffffffffffffffffffffffffffff1673ffffffffffffffffffffffffffffffffffffffff163373ffffffffffffffffffffffffffffffffffffffff16148015611127575073__StringUtils___________________________6346bdca9a826004016000604051602001526040518263ffffffff167c01000000000000000000000000000000000000000000000000000000000281526004018080602001806020018381038352848181546001816001161561010002031660029004815260200191508054600181600116156101000203166002900480156110b95780601f1061108e576101008083540402835291602001916110b9565b820191906000526020600020905b81548152906001019060200180831161109c57829003601f168201915b5050838103825260048152602001807f444f4e4500000000000000000000000000000000000000000000000000000000815250602001935050505060206040518083038186803b151561110b57600080fd5b6102c65a03f4151561111c57600080fd5b505050604051805190505b8015611134575060058411155b151561113f57600080fd5b6080604051908101604052808773ffffffffffffffffffffffffffffffffffffffff1681526020013373ffffffffffffffffffffffffffffffffffffffff168152602001858152602001848152506005600087815260200190815260200160002060008201518160000160006101000a81548173ffffffffffffffffffffffffffffffffffffffff021916908373ffffffffffffffffffffffffffffffffffffffff16021790555060208201518160010160006101000a81548173ffffffffffffffffffffffffffffffffffffffff021916908373ffffffffffffffffffffffffffffffffffffffff160217905550604082015181600201556060820151816003019080519060200190611254929190612439565b5090505061126133611fd5565b6113e060056000878152602001908152602001600020608060405190810160405290816000820160009054906101000a900473ffffffffffffffffffffffffffffffffffffffff1673ffffffffffffffffffffffffffffffffffffffff1673ffffffffffffffffffffffffffffffffffffffff1681526020016001820160009054906101000a900473ffffffffffffffffffffffffffffffffffffffff1673ffffffffffffffffffffffffffffffffffffffff1673ffffffffffffffffffffffffffffffffffffffff16815260200160028201548152602001600382018054600181600116156101000203166002900480601f0160208091040260200160405190810160405280929190818152602001828054600181600116156101000203166002900480156113d25780601f106113a7576101008083540402835291602001916113d2565b820191906000526020600020905b8154815290600101906020018083116113b557829003601f168201915b50505050508152505061203c565b60056000868152602001908152602001600020608060405190810160405290816000820160009054906101000a900473ffffffffffffffffffffffffffffffffffffffff1673ffffffffffffffffffffffffffffffffffffffff1673ffffffffffffffffffffffffffffffffffffffff1681526020016001820160009054906101000a900473ffffffffffffffffffffffffffffffffffffffff1673ffffffffffffffffffffffffffffffffffffffff1673ffffffffffffffffffffffffffffffffffffffff16815260200160028201548152602001600382018054600181600116156101000203166002900480601f01602080910402602001604051908101604052809291908181526020018280546001816001161561010002031660029004801561154e5780601f106115235761010080835404028352916020019161154e565b820191906000526020600020905b81548152906001019060200180831161153157829003601f168201915b505050505081525050915050949350505050565b60006004600083815260200190815260200160002090508060010160009054906101000a900473ffffffffffffffffffffffffffffffffffffffff1673ffffffffffffffffffffffffffffffffffffffff163373ffffffffffffffffffffffffffffffffffffffff16148015611873575073__StringUtils___________________________6346bdca9a826004016000604051602001526040518263ffffffff167c01000000000000000000000000000000000000000000000000000000000281526004018080602001806020018381038352848181546001816001161561010002031660029004815260200191508054600181600116156101000203166002900480156116b25780601f10611687576101008083540402835291602001916116b2565b820191906000526020600020905b81548152906001019060200180831161169557829003601f168201915b50508381038252600b8152602001807f494e2050524f4752455353000000000000000000000000000000000000000000815250602001935050505060206040518083038186803b151561170457600080fd5b6102c65a03f4151561171557600080fd5b5050506040518051905080611872575073__StringUtils___________________________6346bdca9a826004016000604051602001526040518263ffffffff167c01000000000000000000000000000000000000000000000000000000000281526004018080602001806020018381038352848181546001816001161561010002031660029004815260200191508054600181600116156101000203166002900480156118045780601f106117d957610100808354040283529160200191611804565b820191906000526020600020905b8154815290600101906020018083116117e757829003601f168201915b50508381038252600f8152602001807f494e20434f4e4649524d4154494f4e0000000000000000000000000000000000815250602001935050505060206040518083038186803b151561185657600080fd5b6102c65a03f4151561186757600080fd5b505050604051805190505b5b151561187e57600080fd5b6001816005016000828254019250508190555060028160050154141561191e576040805190810160405280600481526020017f444f4e45000000000000000000000000000000000000000000000000000000008152508160040190805190602001906118eb92919061235e565b506119198160000160009054906101000a900473ffffffffffffffffffffffffffffffffffffffff16611f6e565b61196d565b6040805190810160405280600f81526020017f494e20434f4e4649524d4154494f4e000000000000000000000000000000000081525081600401908051906020019061196b92919061235e565b505b5050565b60015481565b60008060006119846122e1565b61198c6123de565b6000809054906101000a900473ffffffffffffffffffffffffffffffffffffffff1673ffffffffffffffffffffffffffffffffffffffff163373ffffffffffffffffffffffffffffffffffffffff161415156119e757600080fd5b60056000878152602001908152602001600020608060405190810160405290816000820160009054906101000a900473ffffffffffffffffffffffffffffffffffffffff1673ffffffffffffffffffffffffffffffffffffffff1673ffffffffffffffffffffffffffffffffffffffff1681526020016001820160009054906101000a900473ffffffffffffffffffffffffffffffffffffffff1673ffffffffffffffffffffffffffffffffffffffff1673ffffffffffffffffffffffffffffffffffffffff16815260200160028201548152602001600382018054600181600116156101000203166002900480601f016020809104026020016040519081016040528092919081815260200182805460018160011615610100020316600290048015611b555780601f10611b2a57610100808354040283529160200191611b55565b820191906000526020600020905b815481529060010190602001808311611b3857829003601f168201915b505050505081525050905080600001518160200151826040015183606001518090509450945094509450509193509193565b60035481565b611b956122f5565b81600660003373ffffffffffffffffffffffffffffffffffffffff1673ffffffffffffffffffffffffffffffffffffffff1681526020019081526020016000206003015410151515611be657600080fd5b81600660003373ffffffffffffffffffffffffffffffffffffffff1673ffffffffffffffffffffffffffffffffffffffff168152602001908152602001600020600301600082825403925050819055508160036000828254019250508190555060c0604051908101604052808573ffffffffffffffffffffffffffffffffffffffff1681526020013373ffffffffffffffffffffffffffffffffffffffff1681526020018481526020013481526020016040805190810160405280600b81526020017f494e2050524f4752455353000000000000000000000000000000000000000000815250815260200160008152506004600085815260200190815260200160002060008201518160000160006101000a81548173ffffffffffffffffffffffffffffffffffffffff021916908373ffffffffffffffffffffffffffffffffffffffff16021790555060208201518160010160006101000a81548173ffffffffffffffffffffffffffffffffffffffff021916908373ffffffffffffffffffffffffffffffffffffffff16021790555060408201518160020155606082015181600301556080820151816004019080519060200190611da7929190612439565b5060a082015181600501559050506004600084815260200190815260200160002060c060405190810160405290816000820160009054906101000a900473ffffffffffffffffffffffffffffffffffffffff1673ffffffffffffffffffffffffffffffffffffffff1673ffffffffffffffffffffffffffffffffffffffff1681526020016001820160009054906101000a900473ffffffffffffffffffffffffffffffffffffffff1673ffffffffffffffffffffffffffffffffffffffff1673ffffffffffffffffffffffffffffffffffffffff1681526020016002820154815260200160038201548152602001600482018054600181600116156101000203166002900480601f016020809104026020016040519081016040528092919081815260200182805460018160011615610100020316600290048015611f2d5780601f10611f0257610100808354040283529160200191611f2d565b820191906000526020600020905b815481529060010190602001808311611f1057829003601f168201915b5050505050815260200160058201548152505090509392505050565b6000809054906101000a900473ffffffffffffffffffffffffffffffffffffffff1681565b600154600660008373ffffffffffffffffffffffffffffffffffffffff1673ffffffffffffffffffffffffffffffffffffffff1681526020019081526020016000206003016000828254019250508190555060015460036000828254039250508190555050565b600254600660008373ffffffffffffffffffffffffffffffffffffffff1673ffffffffffffffffffffffffffffffffffffffff1681526020019081526020016000206003016000828254019250508190555060025460036000828254039250508190555050565b60008060066000846000015173ffffffffffffffffffffffffffffffffffffffff1673ffffffffffffffffffffffffffffffffffffffff16815260200190815260200160002060000154915060066000846000015173ffffffffffffffffffffffffffffffffffffffff1673ffffffffffffffffffffffffffffffffffffffff168152602001908152602001600020600101549050600160066000856000015173ffffffffffffffffffffffffffffffffffffffff1673ffffffffffffffffffffffffffffffffffffffff168152602001908152602001600020600001600082825401925050819055506001820183604001518383020181151561213c57fe5b0460066000856000015173ffffffffffffffffffffffffffffffffffffffff1673ffffffffffffffffffffffffffffffffffffffff1681526020019081526020016000206001018190555060066000846000015173ffffffffffffffffffffffffffffffffffffffff1673ffffffffffffffffffffffffffffffffffffffff16815260200190815260200160002060020180548060010182816121df91906124b9565b9160005260206000209060040201600085909190915060008201518160000160006101000a81548173ffffffffffffffffffffffffffffffffffffffff021916908373ffffffffffffffffffffffffffffffffffffffff16021790555060208201518160010160006101000a81548173ffffffffffffffffffffffffffffffffffffffff021916908373ffffffffffffffffffffffffffffffffffffffff1602179055506040820151816002015560608201518160030190805190602001906122a9929190612439565b50505050505050565b60806040519081016040528060008152602001600081526020016122d46124eb565b8152602001600081525090565b602060405190810160405280600081525090565b60c060405190810160405280600073ffffffffffffffffffffffffffffffffffffffff168152602001600073ffffffffffffffffffffffffffffffffffffffff16815260200160008152602001600081526020016123516124ff565b8152602001600081525090565b828054600181600116156101000203166002900490600052602060002090601f016020900481019282601f1061239f57805160ff19168380011785556123cd565b828001600101855582156123cd579182015b828111156123cc5782518255916020019190600101906123b1565b5b5090506123da9190612513565b5090565b608060405190810160405280600073ffffffffffffffffffffffffffffffffffffffff168152602001600073ffffffffffffffffffffffffffffffffffffffff168152602001600081526020016124336124ff565b81525090565b828054600181600116156101000203166002900490600052602060002090601f016020900481019282601f1061247a57805160ff19168380011785556124a8565b828001600101855582156124a8579182015b828111156124a757825182559160200191906001019061248c565b5b5090506124b59190612513565b5090565b8154818355818115116124e6576004028160040283600052602060002091820191016124e59190612538565b5b505050565b602060405190810160405280600081525090565b602060405190810160405280600081525090565b61253591905b80821115612531576000816000905550600101612519565b5090565b90565b6125ba91905b808211156125b657600080820160006101000a81549073ffffffffffffffffffffffffffffffffffffffff02191690556001820160006101000a81549073ffffffffffffffffffffffffffffffffffffffff021916905560028201600090556003820160006125ad91906125bd565b5060040161253e565b5090565b90565b50805460018160011615610100020316600290046000825580601f106125e35750612602565b601f0160209004906000526020600020908101906126019190612513565b5b505600a165627a7a7230582087b0c96e69252d143cb1f1434d9fa4a1a239b1aaed4387436f302176d7696c220029",
  "source": "pragma solidity ^0.4.18;\n\nimport '../library/StringUtils.sol';\n\ncontract ReviewSystem {\n  address public  rewarder;\n  uint    public  confirmation_reward;\n  uint    public  review_reward;\n  uint    public  tokenBalance;\n\n  // The structure for a trade\n  struct Trade {\n    address seller;\n    address buyer;\n    uint    objectId;\n    uint    price;\n    string  status;\n    uint    confirmation;\n  }\n\n  // The structure for a review\n  struct Review {\n    address reviewed;\n    address reviewer;\n    uint    rate;\n    string  buyerReview;\n  }\n\n  // The structure for a profile\n  struct Profile {\n    uint      numberOfReview;\n    uint      globalRate;\n    Review[]  reviews;\n    uint      tokenBalance;\n  }\n\n  // Declare a Trade structure for each possible uint\n  mapping (uint => Trade) trades;\n\n  // Declare a Review structure for each possible uint\n  mapping (uint => Review) reviews;\n\n  // Declare a Rating structure for each possible address\n  mapping (address => Profile) profiles;\n\n  // Constructor\n  function ReviewSystem() public {\n    rewarder =            msg.sender;\n    confirmation_reward = 1;\n    review_reward =       1;\n    tokenBalance =        90000000000;\n  }\n\n  // Buying a good\n  function buy(address seller, uint objectId, uint tokenUsed) public payable returns(Trade) {\n    require(profiles[msg.sender].tokenBalance >= tokenUsed);\n    profiles[msg.sender].tokenBalance -= tokenUsed;\n    tokenBalance += tokenUsed;\n    trades[objectId] = Trade({\n      seller:       seller,\n      buyer:        msg.sender,\n      objectId:     objectId,\n      price:        msg.value,\n      status:       'IN PROGRESS',\n      confirmation: 0\n    });\n    return (trades[objectId]);\n  }\n\n  // The seller can confirm the trade\n  function sellerConfirm(uint objectId) public {\n    Trade storage trade = trades[objectId];\n    require(msg.sender == trade.seller && (StringUtils.equal(trade.status, 'IN PROGRESS') || StringUtils.equal(trade.status, 'IN CONFIRMATION')));\n    trade.confirmation += 1;\n    if (trade.confirmation == 2) {\n      trade.status = 'DONE';\n      RewardTheSeller(trade.seller);\n    }\n    else {\n      trade.status = 'IN CONFIRMATION';\n    }\n  }\n\n  // The buyer can confirm the trade\n  function buyerConfirm(uint objectId) public {\n    Trade storage trade = trades[objectId];\n    require(msg.sender == trade.buyer && (StringUtils.equal(trade.status, 'IN PROGRESS') || StringUtils.equal(trade.status, 'IN CONFIRMATION')));\n    trade.confirmation += 1;\n    if (trade.confirmation == 2) {\n      trade.status = 'DONE';\n      RewardTheSeller(trade.seller);\n    }\n    else {\n      trade.status = 'IN CONFIRMATION';\n    }\n  }\n\n  // The buyer can review the seller\n  function review(address reviewed, uint objectId, uint rate, string buyerReview) public returns(Review) {\n    Trade storage trade = trades[objectId];\n    require(msg.sender == trade.buyer && StringUtils.equal(trade.status, 'DONE') && rate <= 5);\n    reviews[objectId] = Review({\n      reviewed:     reviewed,\n      reviewer:     msg.sender,\n      rate:         rate,\n      buyerReview:  buyerReview\n    });\n    RewardTheBuyer(msg.sender);\n    AddReviewToProfile(reviews[objectId]);\n    return (reviews[objectId]);\n  }\n\n  // Reward the seller with tokens for of his sell confirmation\n  function RewardTheSeller(address seller) private {\n    profiles[seller].tokenBalance += confirmation_reward;\n    tokenBalance -= confirmation_reward;\n  }\n\n  // Reward the buyer with tokens for his review\n  function RewardTheBuyer(address buyer) private {\n    profiles[buyer].tokenBalance += review_reward;\n    tokenBalance -= review_reward;\n  }\n\n  // Add the review to the seller profile\n  function AddReviewToProfile(Review buyerReview) private {\n    uint savedNumberOfReview = profiles[buyerReview.reviewed].numberOfReview;\n    uint savedGlobalRate = profiles[buyerReview.reviewed].globalRate;\n    profiles[buyerReview.reviewed].numberOfReview += 1;\n    profiles[buyerReview.reviewed].globalRate = ((savedGlobalRate * savedNumberOfReview) + buyerReview.rate) / (savedNumberOfReview + 1);\n    profiles[buyerReview.reviewed].reviews.push(buyerReview);\n  }\n\n  // Getter methods\n\n  // Get a single Trade\n  function getTrade(uint objectId) public view returns(address, address, uint, uint, string, uint) {\n    require(msg.sender == rewarder);\n    Trade memory t = trades[objectId];\n    return (t.seller, t.buyer, t.objectId, t.price, t.status, t.confirmation);\n  }\n\n  // Get a single Review\n  function getReview(uint objectId) public view returns(address, address, uint, string) {\n    require(msg.sender == rewarder);\n    Review memory r = reviews[objectId];\n    return (r.reviewed, r.reviewer, r.rate, r.buyerReview);\n  }\n\n  // Get a single Profile\n  function getProfile(address profileAddress) public view returns(uint, uint, uint) {\n    require(msg.sender == rewarder);\n    Profile memory p = profiles[profileAddress];\n    return (p.numberOfReview, p.globalRate, p.tokenBalance);\n  }\n\n  // Get confirmation_reward\n  function getConfirmationReward() public view returns(uint) {\n    require(msg.sender == rewarder);\n    return (confirmation_reward);\n  }\n\n  // Get review_reward\n  function getReviewReward() public view returns(uint) {\n    require(msg.sender == rewarder);\n    return (review_reward);\n  }\n}\n",
  "sourcePath": "/home/guillaume/projects/blockchain/review-contract/contracts/ReviewSystem.sol",
  "compiler": {
    "name": "solc",
    "version": "0.4.18+commit.9cf6e910.Emscripten.clang"
  },
  "schemaVersion": "1.0.1",
  "updatedAt": "2019-02-28T16:41:12.889Z"
}