{
  "contractName": "StringUtils",
  "abi": [
    {
      "constant": true,
      "inputs": [
        {
          "name": "_a",
          "type": "string"
        },
        {
          "name": "_b",
          "type": "string"
        }
      ],
      "name": "equal",
      "outputs": [
        {
          "name": "",
          "type": "bool"
        }
      ],
      "payable": false,
      "stateMutability": "pure",
      "type": "function"
    },
    {
      "constant": true,
      "inputs": [
        {
          "name": "_haystack",
          "type": "string"
        },
        {
          "name": "_needle",
          "type": "string"
        }
      ],
      "name": "indexOf",
      "outputs": [
        {
          "name": "",
          "type": "int256"
        }
      ],
      "payable": false,
      "stateMutability": "pure",
      "type": "function"
    }
  ],
  "bytecode": "0x6060604052341561000f57600080fd5b6107ed8061001e6000396000f30060606040526004361061004c576000357c0100000000000000000000000000000000000000000000000000000000900463ffffffff16806346bdca9a146100515780638a0807b7146100fe575b600080fd5b6100e4600480803590602001908201803590602001908080601f0160208091040260200160405190810160405280939291908181526020018383808284378201915050505050509190803590602001908201803590602001908080601f016020809104026020016040519081016040528093929190818152602001838380828437820191505050505050919050506101a7565b604051808215151515815260200191505060405180910390f35b610191600480803590602001908201803590602001908080601f0160208091040260200160405190810160405280939291908181526020018383808284378201915050505050509190803590602001908201803590602001908080601f016020809104026020016040519081016040528093929190818152602001838380828437820191505050505050919050506101bd565b6040518082815260200191505060405180910390f35b6000806101b484846104e9565b14905092915050565b60006101c76107ad565b6101cf6107ad565b6000808693508592506001845110806101e9575060018351105b806101f5575083518351115b15610222577fffffffffffffffffffffffffffffffffffffffffffffffffffffffffffffffff94506104df565b6fffffffffffffffffffffffffffffffff84511115610263577fffffffffffffffffffffffffffffffffffffffffffffffffffffffffffffffff94506104df565b60009150600090505b83518110156104bb5782600081518110151561028457fe5b9060200101517f010000000000000000000000000000000000000000000000000000000000000090047f0100000000000000000000000000000000000000000000000000000000000000027effffffffffffffffffffffffffffffffffffffffffffffffffffffffffffff191684828151811015156102ff57fe5b9060200101517f010000000000000000000000000000000000000000000000000000000000000090047f0100000000000000000000000000000000000000000000000000000000000000027effffffffffffffffffffffffffffffffffffffffffffffffffffffffffffff191614156104ae57600191505b82518210801561038957508351828201105b801561048a5750828281518110151561039e57fe5b9060200101517f010000000000000000000000000000000000000000000000000000000000000090047f0100000000000000000000000000000000000000000000000000000000000000027effffffffffffffffffffffffffffffffffffffffffffffffffffffffffffff19168483830181518110151561041b57fe5b9060200101517f010000000000000000000000000000000000000000000000000000000000000090047f0100000000000000000000000000000000000000000000000000000000000000027effffffffffffffffffffffffffffffffffffffffffffffffffffffffffffff1916145b1561049c578180600101925050610377565b82518214156104ad578094506104df565b5b808060010191505061026c565b7fffffffffffffffffffffffffffffffffffffffffffffffffffffffffffffffff94505b5050505092915050565b60006104f36107ad565b6104fb6107ad565b60008086935085925083519150818351101561051657825191505b600090505b8181101561075957828181518110151561053157fe5b9060200101517f010000000000000000000000000000000000000000000000000000000000000090047f0100000000000000000000000000000000000000000000000000000000000000027effffffffffffffffffffffffffffffffffffffffffffffffffffffffffffff191684828151811015156105ac57fe5b9060200101517f010000000000000000000000000000000000000000000000000000000000000090047f0100000000000000000000000000000000000000000000000000000000000000027effffffffffffffffffffffffffffffffffffffffffffffffffffffffffffff19161015610647577fffffffffffffffffffffffffffffffffffffffffffffffffffffffffffffffff94506107a3565b828181518110151561065557fe5b9060200101517f010000000000000000000000000000000000000000000000000000000000000090047f0100000000000000000000000000000000000000000000000000000000000000027effffffffffffffffffffffffffffffffffffffffffffffffffffffffffffff191684828151811015156106d057fe5b9060200101517f010000000000000000000000000000000000000000000000000000000000000090047f0100000000000000000000000000000000000000000000000000000000000000027effffffffffffffffffffffffffffffffffffffffffffffffffffffffffffff1916111561074c57600194506107a3565b808060010191505061051b565b82518451101561078b577fffffffffffffffffffffffffffffffffffffffffffffffffffffffffffffffff94506107a3565b82518451111561079e57600194506107a3565b600094505b5050505092915050565b6020604051908101604052806000815250905600a165627a7a72305820dbdaf926a761b7c6f36709972917419c31dbb6589e4623d579317e0e01a7e3e80029",
  "source": "// StringUtils library found https://github.com/ethereum/dapp-bin/blob/master/library/stringUtils.sol\npragma solidity ^0.4.18;\n\nlibrary StringUtils {\n    /// @dev Does a byte-by-byte lexicographical comparison of two strings.\n    /// @return a negative number if `_a` is smaller, zero if they are equal\n    /// and a positive numbe if `_b` is smaller.\n    function compare(string _a, string _b) private pure returns (int) {\n        bytes memory a = bytes(_a);\n        bytes memory b = bytes(_b);\n        uint minLength = a.length;\n        if (b.length < minLength) minLength = b.length;\n        //@todo unroll the loop into increments of 32 and do full 32 byte comparisons\n        for (uint i = 0; i < minLength; i ++)\n            if (a[i] < b[i])\n                return -1;\n            else if (a[i] > b[i])\n                return 1;\n        if (a.length < b.length)\n            return -1;\n        else if (a.length > b.length)\n            return 1;\n        else\n            return 0;\n    }\n    /// @dev Compares two strings and returns true iff they are equal.\n    function equal(string _a, string _b) public pure returns (bool) {\n        return compare(_a, _b) == 0;\n    }\n    /// @dev Finds the index of the first occurrence of _needle in _haystack\n    function indexOf(string _haystack, string _needle) public pure returns (int)\n    {\n      bytes memory h = bytes(_haystack);\n      bytes memory n = bytes(_needle);\n      if(h.length < 1 || n.length < 1 || (n.length > h.length))\n        return -1;\n      else if(h.length > (2**128 -1)) // since we have to be able to return -1 (if the char isn't found or input error), this function must return an \"int\" type with a max length of (2^128 - 1)\n        return -1;\n      else\n      {\n        uint subindex = 0;\n        for (uint i = 0; i < h.length; i ++)\n        {\n          if (h[i] == n[0]) // found the first char of b\n          {\n            subindex = 1;\n            while(subindex < n.length && (i + subindex) < h.length && h[i + subindex] == n[subindex]) // search until the chars don't match or until we reach the end of a or b\n            {\n              subindex++;\n            }\n            if(subindex == n.length)\n              return int(i);\n          }\n        }\n        return -1;\n      }\n    }\n}\n",
  "sourcePath": "/home/guillaume/projects/blockchain/review-contract/library/StringUtils.sol",
  "compiler": {
    "name": "solc",
    "version": "0.4.18+commit.9cf6e910.Emscripten.clang"
  },
  "schemaVersion": "1.0.1",
  "updatedAt": "2019-02-28T16:41:12.874Z"
}